:020000040000FA
:0400000007EF00F016
:100008001C82DFED00F0A6EF00F01A6EABB40FEF24
:1000180000F011EF00F01AEF00F0ABA216EF00F0BD
:1000280018EF00F022EF00F01AEF00F0790E50EC14
:1000380001F0650E5CEF00F05CEF00F0640E1A183A
:10004800D8A429EF00F02BEF00F033EF00F05E0E9C
:1000580050EC01F0640E5CEF00F05CEF00F0630E12
:100068001A18D8A43AEF00F03CEF00F044EF00F083
:10007800390E50EC01F0630E5CEF00F05CEF00F01D
:10008800660E1A18D8A44BEF00F04DEF00F057EFAA
:1000980000F0710E50EC01F0660E5CEF00F05CEFC2
:1000A80000F05CEF00F0750E5CEF00F05CEF00F024
:1000B800120020EC01F0959083909592839295948C
:1000C80083949596839695988398959A839A959C08
:1000D800839C959E839E71EF00F0640E1318D8A43C
:1000E80078EF00F07AEF00F071EF00F046EC01F0E5
:1000F8008FEF00F0630E1318D8A485EF00F087EF98
:1001080000F08FEF00F039EC01F0000E136E8FEF66
:1001180000F08FEF00F0660E1318D8A496EF00F0E9
:1001280098EF00F07EEF00F09AEF00F040EC01F05D
:10013800000E136E71EF00F071EF00F071EF00F038
:1001480007EF00F0540EF66E020EF76E000EF86E12
:1001580000EE01F010EE10F00900F5CFEEFFE550CB
:10016800E150FAE101EE00F0C80EEE6AE806FDE1A2
:1001780000EE11F0080EEE6AE806FDE11C901C92F4
:1001880000015DEF00F04CEC01F0949C948E400E61
:10019800AF6EB898B89AAC9CAC8AAC98AC96AC8464
:1001A800AC90AB8EAB9CAB88AB96AB90F28EF28CDE
:1001B8009D8A9D9812000600E2EF00F09EAAE7EFE4
:1001C80000F0E9EF00F0E2EF00F0AECF14F01450C9
:1001D80009EC00F0136E1C921100C150F00B0D09D0
:1001E800C16EC284C09EC050C70B3009C06EC050DB
:1001F800F80B0209C06EC2801200C28204EF01F03F
:10020800C2B209EF01F00BEF01F004EF01F0C4CF27
:100218001BF01B5010EF01F012001B6E14EF01F0E1
:100228009EA819EF01F01BEF01F014EF01F01DEF8C
:1002380001F01BC0ADFF1200D668D768050ED56E59
:10024800D58E94928292C7EC00F012000D0A596F75
:1002580075207479706564203A0063641B6E1BB066
:1002680002D08B9201D08B82120001EC01F0186E43
:10027800185011EC01F0120054EC01F0000E32ECB1
:1002880001F01200F1EC00F0010E32EC01F0120066
:10029800D388D38AD38C1200196E19C08CFF120030
:0402A800C2901200EE
:020000040020DA
:08000000FFFFFFFFFFFFFFFF00
:020000040030CA
:0E0000000C0C191EFF8181FF0FC00FE00F4096
:00000001FF
